:020000040001F9
:10400000303E0020BD410100CF410100D1410100FF
:1040100000000000000000000000000000000000A0
:10402000000000000000000000000000D34101007B
:104030000000000000000000D5410100D741010050
:10404000D9410100D9410100D9410100D941010004
:10405000D941010000000000897C0100AD4A010047
:10406000D9410100D9410100D9410100D9410100E4
:10407000D9410100D9410100D9410100D9410100D4
:10408000D9410100155B0100D9410100D94101006E
:10409000A15B0100D94101002F640100D941010059
:1040A000D9410100D94101000000000000000000DA
:1040B0000000000000000000000000000000000000
:1040C00000F002F800F03EF80CA030C808382418C0
:1040D0002D18A246671EAB4654465D46AC4201D140
:1040E00000F030F87E460F3E0FCCB6460126334234
:1040F00000D0FB1AA246AB4633431847F0420000FB
:1041000010430000103A02D378C878C1FAD8520799
:1041100001D330C830C101D504680C60704700007D
:104120000023002400250026103A01D378C1FBD8D3
:10413000520700D330C100D50B6070471FB51FBDBB
:1041400010B510BD04F013F91146FFF7F7FF00F0AA
:10415000DBF904F02BF903B4FFF7F2FF03BC04F022
:1041600031F90000401E00BF00BF00BF00BF00BF0C
:1041700000BF00BF00BF00BF00BF00BF00BFF1D144
:104180007047000070B505460C46164602E00FCC9D
:104190000FC5103E102EFAD2082E02D303CC03C551
:1041A000083E042E07D301CC01C5361F03E0217859
:1041B0002970641C6D1C761EF9D270BD0A48026815
:1041C00003210A4302600948804709480047FEE787
:1041D000FEE7FEE7FEE7FEE7FEE7000005480649CA
:1041E000064A074B70470000240500400D420100BD
:1041F000C1400100302E0020303E0020303600202B
:10420000303600201D491C48086070471C48018C4E
:10421000C9B2012917D1828C120714D1028D12065E
:10422000130F03D1838D1B061B0F1ED0120F012A03
:1042300003D1838D1B061B0F17D0032A03D1828D58
:104240001206120F11D001290ED1818C09070BD152
:10425000018D0906090F042906D1808D0006000F83
:1042600002D10849012088607047084A0649516018
:10427000D113074A9161EBE70024F40000200020ED
:10428000C00F00F000060040DFFF07C0000500403F
:10429000006C004010B4F74800220260F6488368C2
:1042A000F748F64C81886354491C89B201235B02AC
:1042B0008180994200D38280F2490120086010BCBD
:1042C000704700B5F04A83B051681068926800905A
:1042D00002920191684600F0F5FCE748012142682E
:1042E0008902FF231B029A431143416001210160AF
:1042F00003B000BDBFF34F8FE549E448C860BFF38A
:104300004F8FFEE710B5DE48FF2100229131006992
:1043100001F0E6FC002807D0BFF34F8FDC49DB48F3
:10432000C860BFF34F8FFEE710BDBFF34F8FD84972
:10433000D648C860BFF34F8FFEE7BFF34F8FD44915
:10434000D248C860BFF34F8FFEE7BFF34F8FD0490D
:10435000CE48C860BFF34F8FFEE710B500F00DFCEC
:1043600010BD10B5C6490120C870CA490862CA48C4
:104370004168012212065140416000F07CFC10BDF2
:1043800010B5C4490120C861C34841680122D20563
:104390005140416000F03AFCB948FF2100229131C0
:1043A000006901F09DFC002807D0BFF34F8FB8498A
:1043B000B648C860BFF34F8FFEE710BD704708B521
:1043C00003F02DF8684603F06FFA0099084310D106
:1043D000AB4800210170407800280AD031DF002866
:1043E00007D0BFF34F8FAA49A848C860BFF34F8FCB
:1043F000FEE708BDF8B50446871D02F0B2F8214675
:10440000A64800F0EBFE2146A54800F0DBFD204663
:1044100001F069F820889D4D9D4E102804D0112888
:104420001ED013285ED150E000F025FC9448A188EE
:10443000C180806801F0BEFC002805D0BFF34F8F1B
:10444000F560BFF34F8FFEE78D48C06801F0B2FC06
:10445000002847D0BFF34F8FF560BFF34F8FFEE7C3
:1044600002F06CFA002805D0BFF34F8FF560BFF360
:104470004F8FFEE78249012008708A4873DF0028C9
:1044800005D0BFF34F8FF560BFF34F8FFEE77C4839
:10449000012100220904806801F022FC002805D0D7
:1044A000BFF34F8FF560BFF34F8FFEE774480321D2
:1044B0000022C903C06801F013FC002812D0BFF32A
:1044C0004F8FF560BFF34F8FFEE76D48764A0021AE
:1044D000C0887FDF002805D0BFF34F8FF560BFF3A2
:1044E0004F8FFEE7208850280DD138880E280AD13A
:1044F000B87E312807D1674901208861664A810565
:10450000D1605F498870F8BD00249CB00622674BDB
:1045100011462046009401F047FB002807D0BFF366
:104520004F8F5B495948C860BFF34F8FFEE7604A21
:104530000121604801F0ABFB002807D0BFF34F8F8B
:1045400053495248C860BFF34F8FFEE75A4A0121D2
:104550005A4801F09CFB002807D0BFF34F8F4C490D
:104560004A48C860BFF34F8FFEE7554A00215548BF
:1045700001F08DFB002807D0BFF34F8F444943481B
:10458000C860BFF34F8FFEE74F49012003F0FFFBE8
:10459000002807D0BFF34F8F3D493C48C860BFF3A8
:1045A0004F8FFEE70023494A0221494803F0D1FA20
:1045B000002807D0BFF34F8F35493448C860BFF398
:1045C0004F8FFEE7002350224249082001F0FEFEF3
:1045D000002807D0BFF34F8F2D492C48C860BFF388
:1045E0004F8FFEE73C4801F012FF002807D0BFF3D1
:1045F0004F8F27492548C860BFF34F8FFEE73748E4
:1046000001F00DFF002807D0BFF34F8F20491F484E
:10461000C860BFF34F8FFEE702F087FF002807D086
:10462000BFF34F8F1A491948C860BFF34F8FFEE799
:104630006946112003F0D9FA002807D0BFF34F8F45
:1046400013491248C860BFF34F8FFEE72448039018
:10465000029468460178817101A802F08CFB002861
:1046600040D0BFF34F8F0A490848C860BFF34F8F4F
:10467000FEE7000000710040007500402821002086
:104680000420002000700040D48301000400FA05DB
:1046900000ED00E04007005000050050B826002063
:1046A000A02600208C26002018200020282300208F
:1046B0005B4301000C2000208143010010200020FA
:1046C00063430100142000207826002066060000C5
:1046D0002020002028260020F5430100BF430100D0
:1046E0004B430100D84EB268716830680090029266
:1046F0000191684600F0E6FAD44F01207968800203
:10470000FF22120291430843786001253D6029464B
:104710001031684601720A22CDA102A87CDF002870
:1047200007D0BFF34F8FCE49CC48C860BFF34F8F3F
:10473000FEE7CC4878DF002807D0BFF34F8FC84989
:10474000C648C860BFF34F8FFEE7FF219131009448
:104750006846019401804A0042808480C1807ADFEB
:10476000002807D0BFF34F8FBD49BC48C860BFF3D6
:104770004F8FFEE706216846017072693169F06863
:104780001191109012923C2101A803F0F7FC022035
:10479000019068464572858103260490068410A81E
:1047A0000990002101A801F06FF9002807D0BFF39C
:1047B0004F8FAB49A948C860BFF34F8FFEE7AA48A7
:1047C000282144668466C46604674467A748047069
:1047D00004720182B421418218A8067210941194C7
:1047E000139410A8149404711AA812900120014681
:1047F00010A8103101730120014610A81031417337
:104800000120014610A8103181730120014610A833
:104810001031C1730020014610A80174014694486C
:1048200000F004FD002807D0BFF34F8F8C498B4860
:10483000C860BFF34F8FFEE7012001461594169420
:104840001794189418A8103119944170012001464A
:1048500018A8103181700020014618A8C1700120ED
:10486000014618A81031017110A80576642118A816
:10487000017015A97F4800F0D0FB002807D0BFF3D6
:104880004F8F77497548C860BFF34F8FFEE74021CF
:10489000684603F073FC78A1684601F031F908A975
:1048A0001120087700204877684600F096FA002823
:1048B00007D0BFF34F8F6A496848C860BFF34F8F76
:1048C000FEE70520C0030094019002900394049435
:1048D000059468460673664881896846C1810574F7
:1048E0006A480690684600F0CCFD002807D0BFF368
:1048F0004F8F5B495948C860BFF34F8FFEE764494B
:104900001E2008808878E12228431040DF220C30E6
:10491000104088700720C87010200871534873DF5A
:10492000002807D0BFF34F8F4D494C48C860BFF3F4
:104930004F8FFEE757480560574E012100220904BA
:10494000B06801F0CDF9002807D0BFF34F8F44497C
:104950004248C860BFF34F8FFEE703210022C9031E
:10496000F06801F0BDF9002807D0BFF34F8F3C4934
:104970003A48C860BFF34F8FFEE7484F46488078FB
:1049800000283FD0444800252C461421808803F09D
:10499000F7FB060000911AD03A191421344800F0B0
:1049A000E0FC00280FD008280DD03D4988420AD0ED
:1049B0003C49884207D0BFF34F8F29492748C86038
:1049C000BFF34F8FFEE714346D1CB542E4D300985B
:1049D0003A1981B2264800F0C4FC00280FD00828FC
:1049E0000DD02F4988420AD02E49884207D0BFF304
:1049F0004F8F1B491948C860BFF34F8FFEE7264809
:104A0000002181702448C178002912D0264A002153
:104A100011600E4A93688288BB54521C92B20123E3
:104A20005B0282809A4200D381801A4B01221A6075
:104A3000C1703DDF0028A1D0BFF34F8F0849074860
:104A4000C860BFF34F8FFEE7D483010000750040BC
:104A50004E6F726469635F48524D00000400FA05AE
:104A600000ED00E041030000282600208C260020F5
:104A7000B8260020A02600204E6F7264696353653B
:104A80006D69636F6E647563746F72003B43010000
:104A90001820002000700040042000202821002061
:104AA00003300000013400000071004047480168F5
:104AB000002961D010B50021016045488068454A51
:104AC0000121C0B251604B2109014843FF2103F08D
:104AD00057FB41004018FF300F303F4980B28842F9
:104AE00001D3642136E03D4A904209D9081A3A219F
:104AF0004843642103F052FB6421081AC1B229E043
:104B00003749884209D9101A18214843A02103F0D7
:104B100045FB2A21081AC1B21CE0324A90420AD948
:104B2000081A0C214843FF212D3103F037FB1221D5
:104B3000081AC1B20EE02C4988420AD9101A06217F
:104B40004843FF21553103F029FB0621081AC1B261
:104B500000E00021254800F005FB00280BD00828C4
:104B600009D02349884206D02249884203D022A294
:104B70005321FFF7BFFB10BD704770B522480124D9
:104B80004460134818214160104E002535600460D0
:104B9000072027DF002803D017A26921FFF7AAFB0F
:104BA0000321072028DF002803D013A26C21FFF780
:104BB000A1FB072023DF002803D00FA26F21FFF7FE
:104BC00099FB35600348046070BD0000007100402F
:104BD0000075004000700040B80B0000540B00004E
:104BE000B40A00008809000034080000A026002054
:104BF00003300000013400002E2E5C626174746585
:104C000072792E63000000000073004070B51F48E9
:104C1000012444611E4D1F492A46002044DF00281C
:104C200003D01DA25521FFF765FB012042DF0028BC
:104C300003D019A25A21FFF75DFB1A4800214160F9
:104C40008160042101611848C46018490C6018494A
:104C50000C600121174A4905D1601849164A0A61BA
:104C600000BF00BF00BF2C60154A0A6100BF00BF33
:104C700000BF046070BD1149002008610A4901208D
:104C800048600C49400588607047000040070050AC
:104C900000600040409100402E2E5C6C65642E63E5
:104CA000000000000095004000900040409500404A
:104CB0000092004000050050031F02000065004004
:104CC0000315030010B40178027989075207890F90
:104CD000D20E0A4381688807400E10438A03920F60
:104CE00003D00322120411400843144900244B68E6
:104CF000FF22120293434B600C604B681340034346
:104D00004B6010BC704730B40C4A01025368FF245A
:104D10002402A3431943516000250123002801D038
:104D2000136000E01560064C236006480168002906
:104D3000FCD005609068636030BC7047007500402F
:104D40000070004000710040F0B58FB01D46144661
:104D50000E00074604D17AA26D210020FFF7CAFA9F
:104D6000002C04D176A26E210020FFF7C3FA0020A8
:104D7000009001900290039004900590694606907F
:104D80000A7802210A4369460A70012208A98A703A
:104D900069460F8407902A780A776A784A77897F6C
:104DA000F9221140F722891C1140EF2211404A08D4
:104DB000520069468A7708A9099107A90A910B90C0
:104DC0000C9069468C85C8850C866A480D9609AAA0
:104DD0000088149BA2DF0FB0F0BD30B585B004464B
:104DE00001206946887164488880624A01A90120CF
:104DF000A0DF00287ED1228825463C35002A08D035
:104E00005E4800902B465E486168FFF79DFF0028D2
:104E100070D12289002A08D05A4800902B465A485F
:104E2000E168FFF791FF002864D1228A002A08D0A8
:104E3000564800902B4656486169FFF785FF0028C9
:104E40007CD1228B002A08D0524800902B46524831
:104E5000E169FFF779FF002870D1228C002A08D081
:104E60004E4800902B464E48616AFFF76DFF0028C0
:104E700064D1228D002A08D04A4800902B464A4827
:104E8000E16AFFF761FF002858D1206B002829D084
:104E9000027869460A720188FF22120211400A0A4A
:104EA00069464A72FF220168120411400A0C6946E1
:104EB0008A7201682B460A0E6946CA7202790A7321
:104EC000027A4A7301890A0A69468A73806808224D
:104ED000000CC8733548009002A93548FFF734FF2D
:104EE00000282BD1606B00280BD032490091027949
:104EF0002B4600E022E001682F48FFF725FF00283D
:104F00001CD1A06B002818D0027869460A7242882A
:104F10004A72120A8A728288CA72120A0A73C08896
:104F20004873000A8873254800902B46072202A97F
:104F30002348FFF709FF002800D1002005B030BD4D
:104F40002E2E5C2E2E5C2E2E5C2E2E5C2E2E5C5376
:104F50006F757263655C626C655C626C655F7365DE
:104F60007276696365735C626C655F6469732E63F6
:104F700000000000382000200A1800003A2000201D
:104F8000292A000042200020242A00004A20002074
:104F9000252A000052200020272A00005A20002045
:104FA000262A000062200020282A00006A20002013
:104FB000232A0000722000202A2A00007A200020E4
:104FC000502A000008B50A88102A1AD0112A1AD0CF
:104FD000502A1BD1027D002A18D0CA884389891D16
:104FE0009A4213D10A8B022A10D10268002A0DD0EE
:104FF000CA7E8B7E11021943C907C90F07D0002151
:1050000006E0898801E00021C943418208BD0121F1
:10501000009102686946904708BDF0B5054693B017
:10502000086828600020C043688208792875FF203E
:10503000287401270E4668468773644981812A1DBA
:1050400003A93846A0DF00287ED1287D002400284F
:105050000DD0012001466846103101940171717B29
:1050600041718179F92001406846891C817105945C
:1050700006940794089409940A9469460B94087D51
:1050800002210843694608752A7DEF21002A02D0D3
:105090001022104300E008406A461075287D002861
:1050A00000D001A80A90012268468272484B038111
:1050B0000094B37B0370F37B43708078F92318402E
:1050C000F723801C18400F463840410849006846C5
:1050D0008170317B017402A80C9068460E940F9485
:1050E0000D9002874487828704A81090A888AB1D82
:1050F0000CAA05A9A2DF002832D1B06800282DD063
:10510000012069468872334808810094307C087019
:10511000002048708878F9210840F721801C084059
:105120003840400840006946887011A8B16800F016
:10513000E1FC02A90C9169460E940F940D91088729
:105140004C87888711A800E00AE010902A46E8887A
:105150000E320CA9A3DF002802D100E0EC8120462A
:1051600013B0F0BD33B486B004466946227C097F93
:1051700000208A4222D00125684605822174E088F9
:1051800007AB04AA0021A4DF002817D1608A1249C6
:10519000884216D0207D002813D000200090019076
:1051A0000290694603900D82E2880A808D708880A3
:1051B00004A8029007A80390608AA6DF08B030BC5C
:1051C000704708B030BC0820704700000F1800007E
:1051D000192A000008290000FFFF000008B50A880E
:1051E000102A17D0112A17D0502A18D1CA888389BB
:1051F000891D9A4213D10A8B022A10D10268002A13
:105200000DD0CA7E8B7E11021943C907C90F07D082
:10521000002106E0898801E00021C943018408BD1E
:105220000121009102686946904708BDF0B4044628
:1052300092B008682060087960710020C043208423
:105240000025222005554C200553012708A80E46AD
:105250008772724968460185A21D0AA93846A0DFF7
:1052600000287BD10120014668461031079501775F
:10527000317B4177817FF9221140891C817701952B
:105280000095029503950495069501781A2001432F
:105290006846017007A8059008A8877160496846AC
:1052A00081840895717B08A80170B17B4170817879
:1052B000F7201140891C0140EF200140394308A824
:1052C000817009A80B9008A80C900D950E950F956C
:1052D000142168468186C58601872346D88808330D
:1052E0000BAA6946A2DF002838D1B068002834D064
:1052F00003950495059506950795089568460995C3
:10530000017B022001436846017387714549818012
:105310000095F17B0170317C41708078F921084063
:10532000F721801C0840EF210840410849006846E9
:10533000817001A80C9068460E950F9510950D9000
:10534000078745878787B06823461090D888103331
:105350000CAA03A9A2DF002800D1002012B0F0BCE3
:10536000704730B40C46018C2F4B86B099421AD04E
:105370006B461C80002102910391049105910589DF
:105380001D8101259D72998104930592008C02A9CB
:10539000A6DF002804D169460988A14200D00C206C
:1053A00006B030BC704706B030BC0820704770B5FE
:1053B000054604464035A8890E46142807D1262202
:1053C000A118881E02F094FEA889401EA88180B210
:1053D00041000919401CA8818E8470BD403080892D
:1053E000142801D00020704701207047028C0E4B1A
:1053F0009A4202D141710020704708207047203046
:105400008170704703B482B001216A461180008A1E
:1054100003AB0021A4DF04B0704700000D180000AA
:10542000372A0000382A0000FFFF000038B5834902
:10543000834A488890420FD04A78824C521CD2B29C
:105440004A70237B934208D37F4975DF002803D03D
:10545000A169002900D0884738BD00254D70217C06
:10546000002907D03B2176DF002803D0A16900295D
:1054700000D0884761690029EED0684600958847CA
:1054800038BD70B53CC86F493CC184684368026848
:105490008C604B60694C00250A60257010380068EC
:1054A00000280CD001882181418861818188A181F7
:1054B000C188E18164487ADF00280DD103E06248A9
:1054C0007BDF002808D10020C043608065705F4A00
:1054D00000215F4800F0DBFB70BD10B55748406805
:1054E00000F068FC10BDF8B5564C07880026534AFA
:1054F000811CE389102F16D015466D68112F22D01C
:10550000122F37D0502F1DD1C188801D994219D13B
:10551000018B022916D1C17E827E08021043C0078A
:10552000C00F0DD11CE08088508088891082C88906
:105530005082088A9082488AD0825670002B01D10E
:1055400000F04BF8F8BD0020C0435080567028464C
:1055500000F030FC0028F5D0A169002908D1F8BD81
:10556000284600F027FC0028F9D0A1690029F6D0D0
:105570008847F8BD88881082C88850820889908240
:105580004889D08200F029F8F8BDF8B52B4D018884
:105590002981418869818188A981C188E9812A4856
:1055A0007ADF060010D12B48012441880838028890
:1055B00091420BD34088814208D822484169002992
:1055C00002D06846009488473046F8BD2C701E49CA
:1055D000688875DF06466C70F6E7F8B51D48194D0A
:1055E0004288083803880026144C69699A420AD315
:1055F0004088824207D80120002902D000906846E6
:1056000088472670F8BD2078002805D00029F8D0FA
:10561000684600968847F4E7607800280BD0A968B0
:105620000022606800F05CFB0028EAD0A96900292C
:10563000E7D08847E5E76968F2E7000084200020AA
:10564000FFFF0000082700208C2000202D540100BF
:105650008820002094200020FFB585B00546022058
:10566000864608980E9C02910090207801900027B1
:1056700028883E4600283FDD6868B100401802884F
:1056800069460A8240884882002203A904A864DF90
:1056900000285CD16846017B714520D1002F01D0E4
:1056A000002200E002222078891841181F294DD8D5
:1056B000002F07D1401CC0B2411C009B029A2170F0
:1056C0001A540127217800980A1803A904A864DF56
:1056D00000283CD169462078097B40182070288832
:1056E000761CB042C8DC002F06D021780198019AC0
:1056F000081A0099401E8854079802901020864688
:1057000008980E9C009020780190002728883E463B
:10571000002842DD6868B1004018028869460A82A4
:1057200040884882002203A904A864DF00280ED123
:105730006846017B714523D1002F01D0002200E093
:1057400002222078891841181F2902D90C2009B09B
:10575000F0BD002F07D1401CC1B2481C009B029A2B
:1057600020705A540127217800980A1803A904A828
:1057700064DF0028EBD169462078097B401820704F
:105780002888761CB042C5DC002F06D0217801980D
:10579000019A081A0099401E8854002009B0F0BDF3
:1057A000F7B582B00026054616700068144600283A
:1057B00023D02879039F801C1F287DD81D2069468F
:1057C0000880B81C7DDF002877D12868022805D121
:1057D000684600881D2801D8092107E0287908219A
:1057E000002801D01D2801D968460088421C3A7063
:1057F00079702178801C08182070687900281CD0E6
:105800002078039F001D1F2856D8684679DF00289E
:1058100053D121780322481C20707A542178192210
:10582000481C20707A54684601882078C01901709D
:10583000090A41702078801C2070298900291ED017
:1058400001208446EA680398002A7DD02278531804
:105850009B1C1F2B30D81346521C2270491CC1546C
:1058600022786746511C2170875423782A8918189A
:10587000E96802F0D9FB2078297A4018207028695D
:10588000002815D00021415622788C46D01C03995F
:105890001F2811D8501C022320708B5422780A2311
:1058A000501C20708B5420786346421C22700B548D
:1058B000A88A00280CD001E075E075E02846009425
:1058C000062202211430039BFFF7C6FE06006BD1AF
:1058D000A88B002809D028460094072203211C30F9
:1058E000039BFFF7B9FE06005ED1A88C002809D003
:1058F00028460094152214212430039BFFF7ACFEA8
:10590000060051D1E86A002840D0217884468E46AE
:10591000891D03981F2946D861460B88062B13D38F
:105920001922D201724F934201D9BB420CD1614678
:105930004988062908D3914201D9B94204D1BB4212
:1059400005D0B94203D000E080E08B427ED871469A
:10595000491C052372462170835422781223511C5E
:105960002170835422786146098812181170090A3F
:1059700051702178891CCAB222706146498810187A
:105980000170090A41702078801C2070286B002863
:1059900030D0009000792378801CC0B2811C591847
:1059A000039A1F2902D90C2005B0F0BD591C2170A3
:1059B000401CD0542178FF23481C20705354009879
:1059C0000188207880180170090A41702078801CB5
:1059D000C0B2207000998B88002B0BD089680029F9
:1059E0004CD080181A4602F01FFB009821780079ED
:1059F00008182070284620300190007E00283AD0F8
:105A000003990091696B00293BD00026002831D909
:105A10000C20696B70430F18217838794B1C009A61
:105A20002370C01C50542178009B481C1622207003
:105A30005A5422780099388851180870000A487022
:105A40002078801CC0B22070BA8800E016E0002ADE
:105A50000AD0B968002914D0009BC01802F0E4FAFB
:105A600020783979401820700198761C007EF6B2B3
:105A7000B042CDD80026304605B0F0BD072005B0B5
:105A8000F0BD072005B0F0BD70B50D4692B0002105
:105A90006A46117007241171002812D0018900296B
:105AA00005D0C168002902D00978490702D42046F0
:105AB00012B070BD02A9FFF773FE0028F8D102AE44
:105AC00000E00026002D0BD028890028EFD101AA84
:105AD0000AA92846FFF764FE0028E9D10AAA00E0D7
:105AE0000022684603790178304672DF12B070BD3B
:105AF000FFFF00000A780270497841700220704769
:105B000070B504460D46084602F06CFA20806560C8
:105B100070BD0000F8B5FA49002008604860886050
:105B2000C860F84908604860F74EF468601C36D0D9
:105B3000F648002740683169401A05022D0A2820DE
:105B40004443706822189068A84215D873692D1ACA
:105B5000C719546A002B0AD0116AD06998470028E7
:105B600008D0FF21EAA25531FEF7C4FB02E0D1695B
:105B7000106A8847601CE2D1B178F078814206D182
:105B8000401CC0B2F070022801D10020F070000665
:105B9000EB49800D0F500120EA4900050860F8BD6F
:105BA00010B500F0F4F910BDFFB581B00A9F1C4696
:105BB00015460E46980767D1002C65D00120E24AB1
:105BC00041041160E14A01049160E14A9160E149B8
:105BD00048602F20FEF7C6FACB4821464761067081
:105BE00044600020002E13D00A46283A1039F307EB
:105BF00003D02831906208702832730808D0282713
:105C00009062785410655031503208705B1EF6D1A6
:105C100028214E433219BC4B032159709A6011461A
:105C2000107018315070957051602C4618267443CE
:105C30001072671850729572D76010745074E11921
:105C4000957451610021C943D9609870D8700120C2
:105C5000C14900050860C1490A68C024120A12023D
:105C600022430A60BE490860A84901988860BD487F
:105C70000268FF242402A243F4022243026048681F
:105C80001861002005B0F0BD072005B0F0BD70B46C
:105C90009D4D6C68002C12D0002A13D0002811D022
:105CA0002D780023002D07DD28265E43A659002EFF
:105CB0000BD05B1CAB42F7DB70BC0420704770BCA0
:105CC0000820704770BC07207047282501265D43D7
:105CD00066512C19E2616160036070BC002070475E
:105CE000F0B4894B5D68002D0CD01C78A04201D225
:105CF000052902D2F0BC07207047282444432E59BE
:105D0000012E02D0F0BC0820704764196468012C91
:105D100014D00026944D6C68E405E40D1ED0103CB0
:105D20000ED527073F0F083FBF08BF007D19ED695B
:105D3000A407E40EE5402C06A40F0BE00E46E9E7AD
:105D4000A5088A4FAD00ED192D68A407E40EE540C3
:105D50002C06A40F012C26D0032C26D002248C461E
:105D60009B68E100CC186378A7781D465B1C9F42B6
:105D700000D1002327789F4219D0182167684D432E
:105D8000791914D001250D6048606048406888602A
:105D90000E6160464A61C8606A4963702805086000
:105DA000F0BC002070470024D9E70124D7E7F0BCFD
:105DB00004207047544A5168002909D0137898424A
:105DC00001D30720704728234343C958012901D034
:105DD00008207047F0B4644B59680424C905C90D04
:105DE00000291CD010390CD50D072D0F083DAD082A
:105DF000AD00EB18DB698907C90ECB401906890F86
:105E000009E08B08594D9B005B191B688907C90E77
:105E1000CB401906890F01291FD003291FD0022169
:105E20009268C9008A18517895780B46491C8D42B2
:105E300000D10021167800258E4212D0182756680E
:105E40007B43F3180DD002241C60586051703D490B
:105E5000E00408602846F0BC70470021E0E701211B
:105E6000DEE72046F0BC704770B4274A506800282F
:105E700015D03D4B5868C105C90D042000291FD01D
:105E800010390FD50C07240F083CA408A400E31810
:105E9000DB698907C90ECB401906890F0CE0082081
:105EA00070BC70478B08314C9B001B191B6889071D
:105EB000C90ECB401906890F012959D0032959D0A1
:105EC00002219268C9008A18517894780B46491CBF
:105ED0008C4200D10021157800248D42E0D0182694
:105EE00055687343EB18DBD003201860001F58601F
:105EF00051700120134900050860204670BC7047AE
:105F000040110140001101409C200020001501407B
:105F10002E2E5C2E2E5C2E2E5C2E2E5C2E2E5C5396
:105F20006F757263655C6170705F636F6D6D6F6ECE
:105F30005C6170705F74696D65722E6300000000B3
:105F4000B420002000E200E080E100E040130140C6
:105F5000001301400010014080E200E014E400E082
:105F600000E100E010E400E000ED00E000E400E00B
:105F70000021A6E70121A4E7E54949680160002066
:105F80007047401A0002000A106000207047F0B508
:105F9000002095B0C043DF4905900A690792C868A0
:105FA0000A908B78CC78A34211D05B1CDBB28B704B
:105FB000022B01D100238B701B06D74C9B0DE3589D
:105FC00008939A181202120A0A61012201E00022C3
:105FD0000892D04910920F90497803914A1E099275
:105FE000D2B20492CB4A002993680B9352680C9268
:105FF00060D014460E930499CA000E9955182B7858
:10600000697899424ED0182159436A685B1C51182F
:10601000AA78DBB29A4200D100230A68022A02D091
:10602000032A3CD131E04E682821714309198C467E
:10603000097E002933D001460246471C21D0B142D7
:1060400007D00A46282151430919496A4F1CF6D145
:1060500017E0002F15D08A4203D12826704300197B
:10606000406A2826714309198F687243496A1219D8
:1060700051624A1C05D02822514309198A68D21955
:106080008A6000216246117609E0411C07D0002198
:106090002822504300190176406A421CF8D16978E1
:1060A0009942B0D104994A1ED2B204920029A2D1D9
:1060B0009849C86097480F99C068884201D001216B
:1060C00000E000210F911099002926D00025079E9D
:1060D000089A401C1FD08F492820CB680C9C58433D
:1060E00000198468944202D9A11A816013E0121B3E
:1060F0006519002484600476446ACC6041690029F3
:1061000007D077193F023F0AC760016105994162D4
:106110000593641CDFD101200F90059810907D48F5
:10612000099AC0680399D2B20790069200296ED0EE
:1061300078490C9A096908910B990E910699CB0040
:106140000E995C1881E01099491C06D0109F2821F7
:10615000794389184B6A10931EE0217818234B432A
:106160006568491CC9B2EB182170A578A94201D114
:10617000002121705F68282179431D688918012D4D
:1061800067D10D7E002D64D19D68CD60DD680D6105
:106190001D694D615B690B62CD68089B5F4EEB1A10
:1061A0001B021B0AB34203D20D695B198B600AE024
:1061B000089B5B1B1B020D691B0A9D4201D9EB1A50
:1061C00000E000238B600023CB600B6101230B7682
:1061D0009B1E4B622821794389188C46411C14D0A0
:1061E00061468B6828214143891889688B420FD802
:1061F0002821414389188968CB1A282141438918ED
:106200008B606146486238461FE038461DE02DE04D
:106210000146099002E00991696A9B1B4D1C0BD055
:1062200028254D43AD18AE689E42F4D328264E4330
:10623000B618B668F61AAE606546AB60634659623A
:10624000099B28214B4399184F621099491C00D093
:1062500079E7217863789942FAD106994B1EDBB22F
:106260000693002900D069E72A49C860294D07999B
:10627000E868884202D10F99002938D00A9A284943
:10628000284B441C35D0282460430C9C0019866898
:106290001F4844682F69521CE01B05022D0AED1CA3
:1062A000002A0DD159602048416001211F4A48044D
:1062B00010601F4A10601F4801602F20FDF752FF39
:1062C000B54200D23546E81900021B49000A0860B1
:1062D0000F494968001B091B0902090A0002000A4C
:1062E000C91C814203D9012014494004086015B03B
:1062F000F0BD0120124C4204226099600A4A91606C
:106300000C4948602F20FDF72DFF15B0F0BD0000AF
:10631000001501409C200020B4200020FFFF7F00DA
:1063200000000100401301400013014080E200E042
:1063300000E100E0001001404015014000E200E0F3
:1063400080E100E010B508461146FDF7EEFF10BDF4
:10635000F8B53F4C2078002837D02069002807D0B6
:106360000026E068002805D00025002E04D013E0A8
:106370000126F6E70125F8E768464EDF052806D036
:10638000002806D033A26921FDF7B4FF04E00126FE
:1063900002E0216900988847002D12D16088694683
:1063A0000880A06860DF052806D0002806D029A252
:1063B0008021FDF79FFF04E0012502E0E168A0686D
:1063C0008847002ED8D0002DCFD0F8BD002901D1AC
:1063D0000720704730B48C0702D0072030BC7047CC
:1063E0001B4CA16062802949636010DF0028F5D151
:1063F00001202070162023DF30BC704711DF0028F9
:1064000001D0012100E00021114A117070470028DD
:1064100003D00F49C860002070470E207047002845
:1064200003D00B490861002070470E20704710B55B
:1064300007484068002808D08047002804D0FF2182
:1064400004A23331FDF756FF10BDFFF781FF10BDE9
:10645000BC2000202E2E5C2E2E5C2E2E5C2E2E5C60
:106460002E2E5C536F757263655C73645F636F6D32
:106470006D6F6E5C736F66746465766963655F6883
:10648000616E646C65722E6300000000456301005C
:1064900030B5FF4C0546207983B00A2802D304208A
:1064A00003B030BD002805D100221146104601F08E
:1064B000BDFAA0816A462179F64801F0F7F8002874
:1064C000EED104234C222946684601F019F9002830
:1064D000E6D1F14A4C21284601F0A8FAEF49A08103
:1064E00042182079EE4980000A5041180023042206
:1064F000684601F005F90028D2D12079401C2071AE
:10650000002003B030BDE24A00219170D170537871
:10651000002B25DDF0B46820E24C48430019447A92
:1065200064070AD5D478E04D0778E600AF550746F2
:106530001E377519641C6F60D4704224245C022CD1
:1065400009D094780778D94DE600AF5575194230D7
:10655000641C68609470491C9942DCDBF0BC704795
:106560007047F0B5CA4F04463878D14D83B0002843
:1065700002D1A968082088472088CA4ECD4B14282C
:106580007ED019DC10282ED011287AD0132811D1F2
:10659000207AC0070ED0B87902210843B871186874
:1065A000401C07D00020C449586648618861C86112
:1065B0000862486203B0F0BD17286ED0BF491828A2
:1065C0006CD05228F6D11868401C04D0B879C207A4
:1065D00001D0800763D5002211467889A9DF002801
:1065E00063D103B0F0BDAA48A18841810020B14F1A
:1065F000C04338600722A11DB14801F015FD0020FD
:106600007866607BC10713D04008072804D2C10018
:10661000A5484056072803DBA968032088471EE0E9
:106620006821484381196822A248FDF7ABFD16E0B6
:10663000974900248878002811DD9C4FA1480090DC
:10664000E000C01940680622401C009901F09CFC43
:1066500000281BD08E48641C80788442F0DB95486B
:106660000168491CBDD08A4A0021D1711172696844
:106670000029B6D00122009202786B461A7101E01F
:10668000C9E006E0C08FD88068464FE0E000385689
:10669000C6E70020B87103B0F0BD11E01CE1586EF0
:1066A000002803D0142802D90320A4E0002182B2DC
:1066B0007889A9DF002850D10120387203B0F0BDDD
:1066C000A079A41D0028F9D1B879C007F6D01868C0
:1066D000401C2ED00120F871322221461F46181D81
:1066E00001F0A2FCE088F8873868682148438019E7
:1066F00001F044FD682138680A46484380196D4915
:10670000FDF740FD6B48FFF7C3FE042877D0002853
:1067100001D0A968884769680029CFD0032000907C
:1067200038786A461071F88FD0806846884703B081
:10673000F0BD574AE18857780020002F11DD68220C
:1067400042439219D28F8A4208D168214843811965
:1067500068225848FDF716FD0F204CE0401CB84257
:10676000EDDB0094072F01D3042044E021463222C0
:106770001C46181D01F058FC00984549C088E08768
:10678000002027606066682078437F1C4F70801966
:1067900068224849FDF7F6FCFFF7B5FE01203C49A9
:1067A0000022C8713A4811464089A9DF002822D149
:1067B0004048FFF76DFE042802D000281BD10BE0F3
:1067C0006968002917D00420009020786A4610716B
:1067D000E08FD0806846884769680029A7D00020EC
:1067E000009020786A461071E08FD0806846884714
:1067F00003B0F0BD03E0A968884703B0F0BD696845
:10680000002986D00420009038786A461071F88FED
:10681000D08068467EE77A78E1890020002A1ADD78
:10682000682343439B19DB8F8B4211D16821484376
:10683000811968221F48FDF7A5FC0120F87100228C
:106840002149788981DF0400D7D0A96888471DE0F5
:10685000401C9042E4DB1D48E18801802189418091
:1068600061898180A189C180E1890181218A418179
:1068700000221146788981DF002801D0A968884765
:10688000002211467889A9DF0400B6D020461FE017
:10689000D0200020E0200020DC2000200000245335
:1068A000182B0020D0270020E02A0020A82A002052
:1068B0005C27002068270020A4270020B82700209C
:1068C000AA270020AB270020722700209E27002047
:1068D000A968884703B0F0BDA0790207120F00092C
:1068E000012A0FD0022AF5D10028F3D0B87901246B
:1068F0002043B871586E1E46002807D0142806D9C8
:10690000032009E00128F1D803B0F0BD002182B2D4
:106910007889A9DF002802D0A968884700E03C7286
:1069200069680029F0D00220009030786A46107122
:10693000F08FD0806846884703B0F0BDF0B5F94FBE
:1069400083B0387800287DD0F748F84C0068401CA8
:1069500031D01420694608806A46F5497889AADF53
:10696000002870D1F04869460568C5640988416609
:10697000002D69DB7878854266DAF879002806D040
:106980006820684300194C22E749FDF7FBFB387A81
:1069900000280ED06820E749454328190A461032DE
:1069A0006CCA4C306CC04B6A0A6A896A43600260E8
:1069B0008160FFF7A8FD00221146104601F036F86D
:1069C000694608807878002500280CDD6820684337
:1069D0000A4600194C2101F029F8694608807878A8
:1069E0006D1C8542F2DB0888B989884216D01921CE
:1069F0004901D14800F026FF002845D138710546ED
:106A0000787800280ADD682068430019FFF740FD08
:106A1000002839D178786D1C8542F4DB00221146BC
:106A2000104601F003F869460880787800250028B0
:106A300011DD6820684300190A461C214C3000F023
:106A4000F5FF02E022E01FE023E069460880787845
:106A50006D1C8542EDDB0888F98988424ED0FF2104
:106A60004131B64800F0EEFE00280DD178710546A0
:106A70007878002842DD284668214843061978794D
:106A80004C360A2808D3042003B0F0BD082003B018
:106A9000F0BD032003B0F0BD002805D1002211464F
:106AA000104600F0C3FFF8816A467979A34800F0E8
:106AB000FDFD0028EED104231C223146684600F07B
:106AC0001FFE0028E6D19E4A1C21304600F0AEFF92
:106AD0009C49F88142187879002381009A484250F5
:106AE00009180422684600F00BFE0028D2D17879FC
:106AF0006D1C401C787178788542BCDB0020C04357
:106B00007881014688480160C16400214166F971BD
:106B10003972084603B0F0BDF8B5834C606E0028AA
:106B200001D00820F8BD1420694608807D486A46D7
:106B30007F494089AADF0028F4D1206868227B4B76
:106B40004243D2186946E06409882C3B61661746C7
:106B50004C37DE699D695C6971C7186A5B6A1366A8
:106B60005166D065794800F057FBF8BD6D48017853
:106B7000002901D10820704710B500214170017132
:106B80004171C1708170192149016B4800F05AFEB2
:106B9000002804D1FF214131684800F053FE10BDA8
:106BA00010B50B46411C14D05E494978884210DA72
:106BB000002B0ED0682148435C4941184220405CBC
:106BC000022806D007221846423101F02DFA002093
:106BD00010BD072010BDF1B55248C578002D46D034
:106BE00000240721284601F0CBFA002358488C46A0
:106BF00001290BD462465749521EE6007618A700B9
:106C000076685B1C641CC6519342F6DD6146AC4558
:106C10002DDA504AE3009B18A6005B688351641C80
:106C2000E3009B18A6005B688351641CE3009B187B
:106C3000A6005B688351641CE3009B18A6005B6898
:106C40008351641CE3009B18A6005B688351641C9D
:106C5000E3009B18A6005B688351641CE3009B184B
:106C6000A6005B68C91D641C8351A942D2DB2D4874
:106C70008678002E46D000240721304601F080FAA5
:106C8000002335488C4601290BD46246521E334FEF
:106C9000E100C9194F68A1005B1C641C4750934276
:106CA000F5DD6146B4452DDA2C4AE3009B18A700B8
:106CB0005B68C351641CE3009B18A7005B68C35169
:106CC000641CE3009B18A7005B68C351641CE300CD
:106CD0009B18A7005B68C351641CE3009B18A700C6
:106CE0005B68C351641CE3009B18A7005B68C35139
:106CF000641CE3009B18A7005B68C91D641CC3519A
:106D0000B142D2DB0098002E067101D0124900E09A
:106D100000210098002D01600098057320D00C49D7
:106D20001FE00000D020002068270020D02700208E
:106D3000B8270020A4270020E0200020E820002021
:106D4000DE20002000002453342B0020B427002034
:106D500040270020E02A002024270020A82A002025
:106D60000021009881600020F8BD100002D0FA498F
:106D7000896808477047F0B50446806899B00028D4
:106D800037D05021684681800A21C180F3480090A5
:106D9000F349684600F019FC00282BD120206946F1
:106DA0008880F049684600F010FC002822D1EE48A7
:106DB000A368626821680364C26381636821EB4849
:106DC00001F0DCF90027E948FF430760E8480025A7
:106DD00047814570057145718571DF4880780028CD
:106DE00020D019214901DE4800F02CFD002803D0F5
:106DF00007E0072019B0F0BDFF214131D94800F06C
:106E000021FD0028F6D1DA48DA4A4570DA49DB4834
:106E1000072317600D6007606830683168325B1EB9
:106E2000F7D1CCE0D24C0B26207902AD002805D159
:106E300000221146104600F0F9FDA08116AA217922
:106E4000C74800F033FC002819D10023042216A9FA
:106E500015A800F0C3FC002811D11598C849020CF0
:106E60008A4209D187B204234C2216A9284600F091
:106E7000B5FC002803D10BE0401C2ED0304605287D
:106E80002BD00028B6D16078029D85420CDC0EE044
:106E9000BC4A4C21284600F0C9FDA081B84203D16C
:106EA0002079401C2071EEE7304619B0F0BD682013
:106EB00029464143AF484C220818074602A9FDF76E
:106EC00061F96078854205D100217966491E401C30
:106ED000F9646070C0B20728A6D360780025002846
:106EE00054DD607902AE002805D10022114610461B
:106EF00000F09CFDE0810AAA61799A4800F0D6FB77
:106F0000002819D1002304220AA909A800F066FC70
:106F1000002811D109989A49020C8A4209D187B2F6
:106F200004231C220AA9304600F058FC002803D193
:106F30000BE0401C2AD00B20052827D00028B4D114
:106F40006078029981420CDC0EE08F4A1C213046A9
:106F500000F06CFDE081B84203D16079401C6071A3
:106F6000EEE70B2019B0F0BD0A4668214A4381497B
:106F70006D1C511802AACCCA4C31CCC1089E079B8B
:106F8000069A8E604B600A608542AADB6078072112
:106F90000B1A002B11DD6821484376490025401863
:106FA0000146024664314C306C1E14600D60046072
:106FB0006830683168325B1EF7D1FFF7A4FA6C487D
:106FC00001210170002019B0F0BD70B4684A137837
:106FD000002B08D0002909D00B885478A34208D28E
:106FE00070BC0C20704770BC082070470E2070BC2D
:106FF00070470C800028FAD0631E002B17DD012695
:10700000821E6249E507F607F54203D068310D8814
:107010005580921C68256D5A5B1008D0D0310E88BF
:10702000558068256D5A9680121D5B1EF6D1641E30
:1070300006D468214F4A61438918C98F6200815282
:1070400070BC00207047F0B5494C89B02178002908
:1070500051D062780021002A54D968230D465D433F
:10706000444BEB18DB8F834248D148B2411C49D0D6
:10707000C1B2531E0591994229DA0B4668214B4350
:107080003C4900275D182C462E4668344C36101AB1
:10709000401EC0B2009005986822C0195043354A7E
:1070A0002146801868346822FDF76CF82868401E75
:1070B00028603068411C01D0401E3060009868355F
:1070C000401EC0B268367F1C00900028E3D1284DD6
:1070D00068216878274E48438019683801F04EF8D7
:1070E00068781921401E687049011D4800F0AAFB0C
:1070F00000280AD00EE0082009B0F0BD491CC9B232
:107100009142AAD3052009B0F0BDFF2141311548B5
:1071100000F098FB0028F6D1287168710446687861
:1071200000280BD9682060438019FFF7B1F90028C7
:10713000E9D1641C6878E4B28442F3D300240006E9
:10714000000E58D068206043871968794C370A28A8
:107150001ED3042009B0F0BD5C2700206B6D010038
:10716000E0200020E82000202427002068270020BD
:10717000D0200020D0270020342800201C28002008
:1071800024530000DC200020DE200020A627002061
:10719000002805D100221146104600F047FCE88186
:1071A00002AA69793A4800F081FA0028D2D1042372
:1071B0001C22394602A800F0A3FA0028CAD1354A99
:1071C0001C21384600F032FC3349E88142186879C6
:1071D000324980000A5041180023042202A800F01E
:1071E0008FFA0028B6D16879641C401C68716878F1
:1071F000E4B28442A6D3FFF786F9002009B0F0BDBF
:1072000027490A78002A05D08979C907C90F017072
:10721000002070470820704730B5214C0546607942
:1072200083B00A2802D3042003B030BD002805D162
:1072300000221146104600F0F9FBE0816A466179B0
:10724000134800F033FA0028EED104231C2229460B
:10725000684600F055FA0028E6D10E4A1C2128465F
:1072600000F0E4FB0C49E081421860790B49800092
:107270000A50411800230422684600F041FA002811
:10728000D2D16079401C6071002003B030BD000095
:10729000E8200020DE20002000002453342B0020B2
:1072A000D0200020FFB581B00F46FC4D049B039910
:1072B0000646EA68194303208E46002A01D0E96891
:1072C00003E0002911D00121E960039AF44B9200F8
:1072D0001C040092072978D20A007A441279921885
:1072E000974473051E314D7584000221ECE75869FF
:1072F000401C05D0206981B2586900F041FF00E0D0
:1073000060692169401E89B24843216909048A0CD9
:10731000216989B2794351DF002856D1022153E017
:10732000384650DF002850D10399002901D00321AD
:107330004AE00499002904D13178042940D1072179
:1073400042E0042140E05869401C05D0206981B228
:10735000586900F015FF00E060692169401E89B29C
:1073600041432069039A80B2784351DF00282CD131
:1073700004990029E5D13178042924D020E0586906
:10738000401C05D0206981B2586900F0F9FE00E088
:1073900060692169401E89B248437188421800988B
:1073A0001018226992B27A43521800995318014674
:1073B0001846049A51DF002807D13178042902D0F9
:1073C000052101E001E00621E96005B0F0BD20697A
:1073D000009980B27843401871888A08316951DF7A
:1073E0000028F2D171460029EDD1A8E75869401C68
:1073F00005D0206981B2586900F0C2FE00E06069E2
:107400002169401E89B24843216989B200F0B8FE63
:1074100050DF0028D9D10721E96005B0F0BDA149AE
:107420008A78012A7DD1F8B500249C4A8C70D368F3
:10743000082B07D0022817D0032802D10D2000F016
:10744000DDFAF8BD02280AD0147048780028F8D078
:1074500000F039FA0400F4D0112C5ED101E0D460C0
:10746000F3E700F0CBFAF8BD8E48142501786943A4
:1074700008188A498A88521C95B28D800279001DAD
:10748000022A05D14688A902B14201D3012600E0B3
:107490000026052A01D1072B03D00021042A02D09F
:1074A00003E00121FAE7072B03D00027042A02D0CA
:1074B00007E00127FAE74088AA02824201D3002BA5
:1074C00030D000203943014331431CD0734D204656
:1074D000EC6000F093FA73481422017851430918C4
:1074E0000C71CC800C6102224C61CA600C81AC80B2
:1074F0004178491E41700178491CC9B201701E29AA
:1075000001D31E390170674840780028ABD000F0E5
:10751000DAF90400A7D0112CA3D000F06FFA2046AE
:107520009FE701E00120CDE77047F8B500205B4CF4
:107530005C4DA080E06028706870A870014602234E
:1075400014224A4352191071D0801061D3605061E7
:10755000491C10811E29F3D30020514F60807869A7
:107560003E04401C05D0306981B2786900F008FE05
:1075700000E070693169C01E89B24843A0600020F4
:107580004949A08008600881888148810861088392
:10759000888348830820E0607869401C05D0306902
:1075A00081B2786900F0ECFD00E070693169401E3D
:1075B00089B24843316989B200F0E2FD50DF00280A
:1075C00002D10121A9702170F8BDF8B504463348F5
:1075D0000F46007800281ED0002C1ED0002F1CD093
:1075E0002068002819D001252D07A688286980B2B7
:1075F000864222D8102E20D3E088009000281CD08C
:1076000027484169491C0AD02969406989B200F0BC
:10761000B7FD014604E00820F8BD0E20F8BD6969F9
:107620002869491E80B21D4A4143009B90687343FC
:107630001B18994201D3B10701D00720F8BD51882A
:10764000022919D0184B0E013960F2187860506089
:1076500027689F51A3881381E3885381A388E48816
:1076600000266343761C2C69B6B2A4B29C4205D2B4
:107670002C69A4B21B1B02E00420F8BD00232C6976
:10768000A4B220182C69A4B29C42EBD9034B491C2C
:107690009860968159800020F8BD0000F0200020FD
:1076A00000100010502B0020AC2D002070B4DC4BDB
:1076B0001B78002B19D000281AD0002A18D0036894
:1076C000022B0FD2D74C1E01A559002D0AD04568B8
:1076D0003019048961436918458940686543281851
:1076E000884208D870BC0720704770BC08207047DB
:1076F00070BC0E2070471360516070BC0020704752
:10770000F8B5C74C2478002C1DD000291DD00028C6
:107710001BD00468022C14D22501C24C6659002EDD
:107720000FD02D196E892C896D68664376194568CE
:10773000AE4206D9002A04D0944202D3D618A642FB
:1077400005D90720F8BD0820F8BD0E20F8BD0C466D
:107750001C43A40701D1AC0701D01020F8BD009351
:1077600013460A460146022000F021F9F8BDF8B59B
:10777000AB4C2478002C1DD000291DD000281BD034
:107780000468022C14D22501A64C6659002E0FD095
:107790002D196E892C896D68664376194568AE424D
:1077A00006D9002A04D0944202D3D618A64205D99D
:1077B0000720F8BD0820F8BD0E20F8BD0C461C437C
:1077C000A40701D1AC0701D01020F8BD00931346E7
:1077D0000A460146052000F0EAF8F8BD70B5904C65
:1077E0002478002C1DD000291DD000281BD00C6847
:1077F000022C14D28B4D24012E59002E0FD0651966
:107800006E892C896D686643496875198D4206D961
:10781000002A04D0944202D3D518A54205D90720E6
:1078200070BD082070BD0E2070BD04461C43A40727
:1078300001D18C0701D0102070BDC91800F0F4FBF5
:10784000002070BD38B5044675480D460078002804
:1078500016D0002C16D0206802281AD271490001D7
:107860000A58002A15D040184389018942684B43C1
:1078700060689B1883420CD9830705D0102038BD5F
:10788000082038BD0E2038BD801A00F079FC002990
:1078900001D0072038BD0020024600902B4621462B
:1078A000042000F084F838BD5D490978002906D02D
:1078B000002806D05C494978016000207047082004
:1078C00070470E207047F8B5574914230A780F20E7
:1078D0005A4354185249227926698F88241D022A56
:1078E00024D001252D07042A33D0052A1DD128696B
:1078F00081B2304600F044FC0146A38828699A19F9
:1079000080B24843101A82086088181886192869BE
:107910004B1C80B25843801B83082046FFF7C2FCF3
:10792000002802D1404901228A70F8BDB80262885D
:107930002169121A0918A3883018181801239B020C
:107940009A4202D2920851DFEAE7FF22013251DF68
:10795000E6E7A3683348190108180189428940689D
:10796000B04203D160885143814218D0032B16D016
:10797000286981B2304600F003FC0146286980B2D4
:107980004843301A820828694B1C80B258436388E8
:107990009B19C01A83082046FFF784FCC0E72869BA
:1079A00081B2304600F0ECFBC01950DFB8E7F8B503
:1079B0001D4C069E65781E2D1ED027787D19EDB2D0
:1079C0001E2D01D31E3DEDB214277D432D192871C4
:1079D0006A61086849682961E860EB802E81A178B6
:1079E0000020002904D1FFF76EFF112800D10020EC
:1079F0006178491C6170F8BD0420F8BD38B50246B5
:107A0000094814230178074C59430818C3680179C1
:107A10001B01E458C388009343690C30A04738BD6C
:107A2000F0200020AC2D0020502B00200346002A1F
:107A300015D01088002911D0020A000202431878DC
:107A4000491E50400206120F42401003504082B2BD
:107A50001006C00C50405B1C0029EDD17047014856
:107A6000E8E70000FFFF0000F8B5744C6946607855
:107A700000F064FA002854D120780025002850D95D
:107A80006F4F01260C206168684341180878324620
:107A90003B68824013421DD08B68002B1AD0497876
:107AA0000129E1688C4609D000293BD001461846DF
:107AB000012263469847002820D12DE0002933D0C9
:107AC00001461846002263469847002816D123E055
:107AD000984721E07B6813421ED08B68002B1BD097
:107AE00049780129E1688C460DD000291CD0014657
:107AF000184600226346984700280DD051A228213D
:107B0000FCF7F8FB08E000290CD0014618460122DA
:107B1000634698470028F1D16D1C2078EDB285426C
:107B2000B0D3F8BD0121D3E70021D1E770B5434DB3
:107B300004460E462869FEF73DF9002808D1404862
:107B40000660446034432246A9682869FEF7C8F8F5
:107B500070BD052A01D207207047F8B50C46374999
:107B600048600C70CB608A60621E0021D2B2002C8B
:107B700013D0404D01240C2353431B181E785F681B
:107B8000B600BF00761937601E782346B34019430C
:107B90001346521ED2B2002BEDD1374B0A4637485E
:107BA00000F01BF9002804D1354A00213548FEF7C2
:107BB0006EF8F8BD21484168002901D108207047BE
:107BC00010B5407800F044F910BD10B51B4C60684A
:107BD000002808D0607800F080F9002802D12069E0
:107BE000FEF7E8F810BD082010BDF8B505460C20DA
:107BF0002A46424311480C464168561800290CD0C9
:107C00006946407800F09AF9002807D1727801217E
:107C1000002A04D0012A07D00DE00820F8BD009A00
:107C2000EA40D20706D103E0009AEA40D20701D029
:107C3000217000E020700020F8BD0000002100202D
:107C4000142100202E2E5C2E2E5C2E2E5C2E2E5CFF
:107C50002E2E5C536F757263655C6170705F636F2D
:107C60006D6D6F6E5C6170705F627574746F6E2E97
:107C700063000000000700502D7B0100012100205F
:107C8000697A010010210020F0B5B74883B001697E
:107C90000091B64A0021D1630191B5494A78002A82
:107CA00073D9019814214843B149019C4A688968F5
:107CB000821801200346A3400B425ED0D1680327FF
:107CC000CB4300994B4011680B4000219C463F0478
:107CD00005468D402B4212D0D6682E4203D1012496
:107CE00064042E4301E03C46AE43D660A14D8E00B5
:107CF00075192E68BE432E602E6826432E60491CDF
:107D00002029E5D398490969009B594027D00B43A6
:107D10000093D168CC4311685C400C4000210346BD
:107D20008B401C4215D0D5681D4203D10126760434
:107D30001D4302E0032636049D43D5608D4B8D0024
:107D4000ED182F6803231B049F432F602B683343D8
:107D50002B60491C2029E2D3604620438446009BC7
:107D6000604691689843014064465068234018403B
:107D700003460B4301D01269904701987C49401C8F
:107D8000C0B20190497888428BD303B0F0BD00297E
:107D900001D08A0701D00720704710B5744A0B46FE
:107DA00051601070002151709160142141431846B8
:107DB00000F0E4F900207049C04388606F4840211A
:107DC00001606F4A1068FF231B0498430B0418439B
:107DD00010606C480160002010BDF0B48446644817
:107DE0004568002D08D0002B09D044780678B442AD
:107DF00008D3F0BC04207047F0BC08207047F0BCEA
:107E0000072070470F46142617436643AF51761973
:107E10003361B260716061460C70611C4170142165
:107E200000204C430122534B03273F042E59114697
:107E300081400E4206D08100C9180E68BE430E6014
:107E40000E680E60401C2028F0D3F0BC0020704764
:107E5000F0B4474C6268002A05D06178884205D3A7
:107E6000F0BC07207047F0BC082070473F49002550
:107E7000CD633D4909698C46A168002903D10123DE
:107E80003D4EDB077360012686400E4314214843B4
:107E90008118A660CD60032500212D0486180124D9
:107EA00013588C40234212D06346234201D02B4604
:107EB00004E00123F7685B042743F7602D4C8F0033
:107EC0003C192768AF43276027681F432760491C78
:107ED0002029E4D3F0BC00207047F0B4244A556850
:107EE000002D05D05178884205D3F0BC072070479B
:107EF000F0BC0820704714220021424301240327CC
:107F00003F04AE5823468B401E4207D0194E8B00CB
:107F10009B191E68BE431E601E681E60491C2029F6
:107F2000EFD3134984408868A043886003D10120BF
:107F30001149C0078860F0BC002070470C4B5A689C
:107F4000002A04D05B78984203D3072070470820AA
:107F50007047142358438018034A1269006802408E
:107F600000200A607047000000050050406100409A
:107F70001C210020000700500063004080E200E068
:107F800004E400E000E100E0034610B50B439B076A
:107F90000FD1042A0DD308C810C9121FA342F8D06C
:107FA00018BA21BA884201D9012010BD0020C0436F
:107FB00010BD002A03D0D30703D0521C07E00020D5
:107FC00010BD03780C78401C491C1B1B07D103789B
:107FD0000C78401C491C1B1B01D1921EF1D1184684
:107FE00010BD000030B5441C03E00178401C00299E
:107FF0000DD08107F9D10B4BDD0104C8D11A914393
:108000002940FAD0001B0A0603D0C01E30BD001B59
:1080100030BD0A0401D0801E30BD0902FCD0401ED4
:1080200030BD000001010101F8B5042A2CD38307FB
:1080300012D00B78491C0370401C521E83070BD0D2
:108040000B78491C0370401C521E830704D00B7828
:10805000491C0370401C521E8B079B0F05D0C91A88
:10806000DF002023DE1B08C90AE0FCF78BF8F8BD0F
:108070001D4608C9FD401C46B4402C4310C0121FC9
:10808000042AF5D2F308C91A521EF0D40B78491C01
:108090000370401C521EEAD40B78491C0370401C2C
:1080A000012AE4D409780170F8BD431A70B59342EF
:1080B0001BD28918801804E0491E401E0B78521EFE
:1080C00003709307F8D106E01039103878C91039D9
:1080D00078C01038103A102AF6D203E0091F001FAA
:1080E0000B680360121FF9D570BDFCF74BF870BD2B
:1080F000F8B5064614460843800707D0751AA5420E
:1081000019D20819102D13D2311907E03046FFF7A4
:10811000CCFFF8BD401E491E02780A70641EF9D2D9
:10812000F8BD471B2A463946FFF77EFF641B3846D9
:10813000A542F6D3011B22463046FFF775FFF8BD76
:1081400001E004C0091F0429FBD28B0701D502807E
:10815000801CC90700D00270704700290BD0C307EC
:1081600002D00270401C491E022904D3830702D5A5
:108170000280801C891EE3E70022EEE70022DFE791
:10818000002203098B4273D3030A8B4258D3030B9B
:108190008B423CD3030C8B4221D312E003460B43AA
:1081A0007FD4002243088B4274D303098B425FD3F0
:1081B000030A8B4244D3030B8B4228D3030C8B421C
:1081C0000DD3FF22090212BA030C8B4202D3121202
:1081D000090265D0030B8B4219D300E0090AC30BD7
:1081E0008B4201D3CB03C01A5241830B8B4201D384
:1081F0008B03C01A5241430B8B4201D34B03C01A6D
:108200005241030B8B4201D30B03C01A5241C30AE4
:108210008B4201D3CB02C01A5241830A8B4201D355
:108220008B02C01A5241430A8B4201D34B02C01A3F
:108230005241030A8B4201D30B02C01A5241CDD2E4
:10824000C3098B4201D3CB01C01A524183098B422F
:1082500001D38B01C01A524143098B4201D34B0118
:10826000C01A524103098B4201D30B01C01A52417B
:10827000C3088B4201D3CB00C01A524183088B4202
:1082800001D38B00C01A524143088B4201D34B00EB
:10829000C01A5241411A00D201465241104670475D
:1082A0005DE0CA0F00D04942031000D34042534062
:1082B00000229C4603098B422DD3030A8B4212D322
:1082C000FC22890112BA030A8B420CD38901921154
:1082D0008B4208D3890192118B4204D389013AD091
:1082E000921100E08909C3098B4201D3CB01C01A66
:1082F000524183098B4201D38B01C01A5241430979
:108300008B4201D34B01C01A524103098B4201D366
:108310000B01C01A5241C3088B4201D3CB00C01AD3
:10832000524183088B4201D38B00C01A5241D9D2EB
:1083300043088B4201D34B00C01A5241411A00D26C
:108340000146634652415B10104601D34042002B68
:1083500000D54942704763465B1000D3404201B5E7
:108360000020C046C04602BD704770477047754642
:1083700000F024F8AE46050069465346C008C00028
:10838000854618B020B5FBF729FF60BC00274908D7
:10839000B6460026C0C5C0C5C0C5C0C5C0C5C0C59D
:1083A000C0C5C0C5403D49008D46704710B5044664
:1083B000C046C0462046FBF7CEFE10BD00487047C1
:1083C000CC2D002001491820ABBEFEE7260002009C
:1083D00070470000020000000200000000000000E2
:1083E0000D1801000F1801000A1801000C8401008B
:1083F0000020002028010000044101003485010014
:1084000028210020081D0000204101000024F40064
:10841000000000000000FFFF00000000000000005E
:10842000000000000000000000000000100000003C
:1084300003000000BD430100110000000300000024
:10844000BD4301000000000000000000000000002B
:10845000000000000000000000000000000000001C
:10846000000000000000000000000000000000000C
:1084700000000000000000000000000000000000FC
:1084800000000000000000000000000000000000EC
:1084900000000000000000000000000000000000DC
:1084A00000000000000000000000000000000000CC
:1084B00000000000000000000000000000000000BC
:1084C00000000000000000000000000000000000AC
:1084D000000000000000000000000000000000009C
:1084E000000000000000000000000000000000008C
:1084F000000000000000000000000000000000007C
:10850000000000000000000000000000000000006B
:10851000000000000000000000000000000000005B
:10852000000000000000000000000000000000004B
:048530000000000047
:04000005000140C1F5
:00000001FF
